:100000000C9469000C947B000C947B000C947B0096
:100010000C947B000C947B000C947B000C947B0074
:100020000C947B000C947B000C947B000C947B0064
:100030000C947B000C94F5020C947B000C947B00D8
:100040000C947B000C947B000C947B000C947B0044
:100050000C947B000C947B000C947B000C947B0034
:100060000C947B000C947B000C947B000C947B0024
:100070000C947B000C947B000C947B00084AD73BCB
:100080003BCE016E84BCBFFDC12F3D6C74319ABD67
:1000900056833DDA3D00C77F11BED9E4BB4C3E918B
:1000A0006BAAAABE000000803F072C7AA5BA6CC5D7
:1000B00090DA3B9365FC8BBC53F810FD3C56928361
:1000C0004DBD879D3AB63DCBC9BF5BBE73DA0FC944
:1000D0003F0011241FBECFEFCDBFDFE3DEBF28E31B
:1000E000A0E0B8E301C01D92A430B207E1F70E947E
:1000F0001D030C94F5060C940000E0E0F4E088E1A8
:10010000818390E195832FE734E84EE12150304020
:100110004040E1F700C0000088E085832FE734E825
:100120004EE1215030404040E1F700C0000096838E
:100130009FE724E83EE1915020403040E1F700C0C5
:10014000000086834FE784E89EE141508040904064
:10015000E1F700C00000089587E0809321048093B8
:10016000000A83E78093010A80E593EC8093360AC6
:100170009093370A1092380A1092390A10923A0A6C
:1001800010923B0A10923C0A10923D0A80E29EE4D3
:1001900080934C0A90934D0A81E08093450A8093A6
:1001A000400A0895E0E0F4E080EE828388E08093E6
:1001B000150480931604809317042FE38DE093E0D9
:1001C000215080409040E1F700C0000080E1809322
:1001D00001028085882314F48CE001C088E09091AE
:1001E000080496FD8E5F9091080495FD8F5F880F3F
:1001F00080931C0881E080931908089588ED84BFDE
:10020000109261000E947D00109222040E94AC00B6
:100210000E94D20008959DEF980F923010F00E9436
:10022000F006662359F021E030E0A90102C0440F36
:10023000551F8A95E2F740930504089521E030E0C8
:10024000A90102C0440F551F8A95E2F740930604A6
:100250000895613593EC790710F00E94F006813023
:1002600049F018F0823059F008956093380A70937D
:10027000390A089560933A0A70933B0A089560938F
:100280003C0A70933D0A0895EBE1F8E0808185FF18
:10029000FDCF80911D0808959EEF980F923010F0C9
:1002A0000E94F00680931A0808950895613079F04D
:1002B00028F06230A9F06330E1F0089560E084E056
:1002C0000E940B0160E083E00E940B01089560E052
:1002D00084E00E940B0161E083E00E940B0108951D
:1002E00061E084E00E940B0161E083E00E940B0169
:1002F000089561E084E00E940B0160E083E00E94C9
:100300000B0108951F93CF93DF93EC01162F0296F4
:100310000E947F0360E0CE0103960E94800361E0AB
:10032000CE0104960E94800362E0CE0105960E94F1
:1003300080031A30B1F028F4183051F0193061F010
:100340001FC01D30B1F01E30C1F01C30C9F40CC00C
:1003500018828DE2898314C081E088838DE28983CD
:100360000FC0188219820CC081E0888383ED8983D5
:1003700007C0188283ED898303C081E088831982D6
:10038000DF91CF911F9108954F925F926F927F926C
:100390008F929F92AF92BF92CF92DF92EF92FF9295
:1003A000CF93DF93CDB7DEB72A97CDBFDEBF898766
:1003B0009A87E62EF22EFC018081813011F4E194BF
:1003C0004195A42E440FBB086BE370E06A197B09CA
:1003D000072E000C880B990B0E9449052B013C014C
:1003E0008E2D992781950CF49095BC01072E000C59
:1003F000880B990B0E944905A30192010E944004B9
:1004000069837A838B839C836BE470E06F19710935
:10041000F7FC7395072E000C880B990B0E94490579
:100420006B017C016AE270E06A197B09072E000CFF
:10043000880B990B0E9449054B015C01A7019601AD
:10044000C701B6010E9424062B013C01A5019401BD
:10045000C501B4010E9424069B01AC01C301B20195
:100460000E94C1030E9497064B015C019B01AC01F5
:10047000C701B6010E949F040E94AF036B017C017B
:10048000A5019401C501B4010E9424062B013C0181
:1004900020E030E541E755E40E94C0036D837E8390
:1004A0008F83988720E030E048EA52E4C501B40128
:1004B0000E9424069B01AC016D817E818F8198850D
:1004C0000E949F040E94AF039B01AC01C701B601CB
:1004D0000E94C1036B017C01A301920160E078ECF2
:1004E0008FEA95E40E94C00320E030E84CED54E42C
:1004F0000E94C10320E030EE44EC55E40E949F04CA
:100500000E94AF034B015C0120E030E044E353E480
:1005100069817A818B819C810E9424062BED3FE0CA
:1005200049E450E40E949F042B013C01E985FA85CF
:100530006181062E000C770B880B990B0E944905F0
:100540009B01AC01C301B2010E94C0030E941105CE
:1005500089859A8503960E94A00320E030E044E359
:1005600053E4C701B6010E9424062BED3FE049E4A5
:1005700050E40E949F0420E030E044EB52E40E94EB
:10058000C0030E94110589859A8504960E94A003E4
:1005900020E030E044E353E4C501B4010E942406A6
:1005A0002BED3FE049E450E40E949F0420E030E05E
:1005B00044EB52E40E94C0030E94110589859A858C
:1005C00005960E94A0032A96CDBFDEBFDF91CF9192
:1005D000FF90EF90DF90CF90BF90AF909F908F9063
:1005E0007F906F905F904F9008951F920F920FB67B
:1005F0000F9211248F939F93AF93BF9380910038F4
:1006000090910138A0910238B09103380196A11D54
:10061000B11D8093003890930138A0930238B093B5
:10062000033881E08093460ABF91AF919F918F91EB
:100630000F900FBE0F901F901895CF93DF93CDB7FB
:10064000DEB72A97CDBFDEBF0E94FE00CE01019625
:100650000E94550160911C0870E075956795CE0168
:1006600002960E948201188619861A8663E0CE01DE
:1006700001960E94560178940BE118E00F2EFDE1DF
:10068000AF2EF8E0BF2EF02D63E0CE0101960E9460
:100690005601A895F801808186FF29C062E0CE014D
:1006A00001960E945601F501808183E00E944C0171
:1006B0006E01F8E0CF0ED11CF12CF8018081806C26
:1006C00080830E944401F60181936F01F8018081CB
:1006D000806C8083F1E0FF1518F083E00E944C01EC
:1006E000F39483E0F812E9CF82E00E944C012A855E
:1006F00049856885CE0102960E94C401C5CF089540
:10070000FC0160830895CF93DF93EC01CB0180520D
:1007100093408937954010F00E94F00680E090E009
:100720000E9447052DEC3CEC4CEC5EE30E949F04DC
:100730000E94180588810E942901DF91CF910895B8
:100740002CE3260F293710F00E94F0062BE06202FE
:10075000B001112464527A4F0E94830308959F933D
:100760009F770E9484050F90002042F49058A2EADF
:100770002AED3FE049E450E40E94D8030C94E205DE
:100780005058BB27AA270E94D8030C94E2050E9468
:10079000D40538F00E94DB0520F039F49F3F19F4AE
:1007A00026F40C94AA050EF4E095E7FB0C94A4053E
:1007B000E92F0E94F30558F3BA17620773078407FD
:1007C000950720F079F4A6F50C9415060EF4E09543
:1007D0000B2EBA2FA02D0B01B90190010C01CA01FB
:1007E000A0011124FF27591B99F0593F50F4503EA6
:1007F00068F11A16F040A22F232F342F4427585F98
:10080000F3CF469537952795A795F0405395C9F7AF
:100810007EF41F16BA0B620B730B840BBAF0915067
:10082000A1F0FF0FBB1F661F771F881FC2F70EC006
:10083000BA0F621F731F841F48F4879577956795D9
:10084000B795F7959E3F08F0B0CF9395880F08F0C5
:100850009927EE0F9795879508950E94D40560F02B
:1008600080E891E009F49EEF0E94DB0528F040E863
:1008700051E071F45EEF0CC00C94AA050C941506BF
:10088000E92FE0780E94F30540F3092E052AB1F321
:10089000261737074807590738F00E2E07F8E025C6
:1008A00069F0E025E0640AC0EF6307F8009407FAF6
:1008B000DB01B9019D01DC01CA01AD01EF930E948A
:1008C000B6040E94E2050E9470045F91552339F03E
:1008D0002BED3FE049E450FD49EC0C94C103089531
:1008E000DF93DD27B92FBF7740E85FE316161706C1
:1008F00048075B0718F4D92F0E941C069F938F931B
:100900007F936F930E94D706ECE7F0E00E94AD055D
:100910000E94E2052F913F914F915F910E9437060F
:10092000DD2351F09058A2EA2AED3FE049EC5FE365
:10093000D0785D270E94D803DF910C94E2050E94D5
:10094000B3040C94E2050E94DB0558F00E94D40524
:1009500040F029F45F3F29F00C94A40551110C9448
:1009600016060C94AA050E94F30568F39923B1F3C7
:10097000552391F3951B550BBB27AA2762177307C5
:10098000840738F09F5F5F4F220F331F441FAA1F59
:10099000A9F335D00E2E3AF0E0E832D09150504015
:1009A000E695001CCAF72BD0FE2F29D0660F771FC3
:1009B000881FBB1F261737074807AB07B0E809F0A9
:1009C000BB0B802DBF01FF2793585F4F3AF09E3F2E
:1009D000510578F00C94A4050C9416065F3FE4F3DF
:1009E000983ED4F3869577956795B795F7959F5F71
:1009F000C9F7880F911D9695879597F90895E1E0BD
:100A0000660F771F881FBB1F621773078407BA071B
:100A100020F0621B730B840BBA0BEE1F88F7E09576
:100A200008950E9418056894B1110C941606089553
:100A30000E94FB0588F09F5798F0B92F9927B7516E
:100A4000B0F0E1F0660F771F881F991F1AF0BA9572
:100A5000C9F714C0B13091F00E941506B1E00895B5
:100A60000C941506672F782F8827B85F39F0B93FA7
:100A7000CCF3869577956795B395D9F73EF4909525
:100A80008095709561957F4F8F4F9F4F0895E894A3
:100A900009C097FB3EF490958095709561957F4FC6
:100AA0008F4F9F4F9923A9F0F92F96E9BB27939574
:100AB000F695879577956795B795F111F8CFFAF484
:100AC000BB0F11F460FF1BC06F5F7F4F8F4F9F4FB5
:100AD00016C0882311F096E911C0772321F09EE813
:100AE000872F762F05C0662371F096E8862F70E079
:100AF00060E02AF09A95660F771F881FDAF7880F53
:100B00009695879597F90895DF93CF931F930F9349
:100B10008B01EC01E9EAF0E00E94AD050E94E205DC
:100B20009801AE018B01EC0160E070E080E89FE38A
:100B30000E94C0030E9497069801AE010F911F9179
:100B4000CF91DF910C94370697F99F6780E870E0AA
:100B500060E008959FEF80EC0895DF93CF931F939B
:100B60000F93FF92EF92DF927B018C01689406C095
:100B7000DA2EEF010E943706FE01E894A591259137
:100B8000359145915591A6F3EF010E94D803FE01DE
:100B90009701A801DA9469F7DF90EF90FF900F9129
:100BA0001F91CF91DF91089500240A94161617061D
:100BB00018060906089500240A941216130614064E
:100BC00005060895092E0394000C11F4882352F0B1
:100BD000BB0F40F4BF2B11F460FF04C06F5F7F4F69
:100BE0008F4F9F4F089557FD9058440F551F59F050
:100BF0005F3F71F04795880F97FB991F61F09F3F0A
:100C000079F087950895121613061406551FF2CF32
:100C10004695F1DF08C0161617061806991FF1CF82
:100C200086957105610508940895E894BB276627A9
:100C30007727CB0197F908959B01AC0160E070E044
:100C400080E89FE30C949F040E9437060C94E20511
:100C50000E94D40538F00E94DB0520F0952311F0A6
:100C60000C94A4050C94AA0511240C9416060E9459
:100C7000F30570F3959FC1F3950F50E0551F629FE8
:100C8000F001729FBB27F00DB11D639FAA27F00DE5
:100C9000B11DAA1F649F6627B00DA11D661F829F0C
:100CA0002227B00DA11D621F739FB00DA11D621FF1
:100CB000839FA00D611D221F749F3327A00D611D0E
:100CC000231F849F600D211D822F762F6A2F1124F0
:100CD0009F5750409AF0F1F088234AF0EE0FFF1F23
:100CE000BB1F661F771F881F91505040A9F79E3F7A
:100CF000510580F00C94A4050C9416065F3FE4F3B4
:100D0000983ED4F3869577956795B795F795E795CF
:100D10009F5FC1F7FE2B880F911D9695879597F9D8
:100D2000089519F416F40C94AA050C94DB060E949D
:100D3000FB05B8F39923C9F3B6F39F57550B87FF0B
:100D40000E94E9060024A0E640EA900180585695EA
:100D5000979528F4805C660F771F881F20F0261770
:100D60003707480730F4621B730B840B20293129A5
:100D70004A2BA69517940794202531254A2758F722
:100D8000660F771F881F20F026173707480730F4B3
:100D9000620B730B840B200D311D411DA09581F753
:100DA000B901842F9158880F9695879508959B01D6
:100DB000AC010C9424069F3F31F0915020F48795AC
:100DC00077956795B795880F911D9695879597F9B3
:100DD000089591505040660F771F881FD2F70895ED
:0E0DE00081E090E0F8940C94F506F894FFCFB3
:00000001FF
