S0120000436F6E74726F6C6C65722E73726563EE
S11300000C943E000C9448000C9448000C94480056
S11300100C9448000C9448000C9448000C9448003C
S11300200C9448000C9448000C9448000C9448002C
S11300300C9448000C9448000C9448000C9448001C
S11300400C9448000C9448000C9448000C9448000C
S11300500C9448000C9448000C9448000C944800FC
S11300600C9448000C9448000C9448000C944800EC
S11300700C9448000C9448000C94480011241FBEB2
S1130080CFEFCDBFDFE3DEBF0E9474010C943403D5
S11300900C940000E0E0F4E088E1818390E1958332
S11300A02FE734E84EE1215030404040E1F700C0F2
S11300B0000088E085832FE734E84EE1215030408A
S11300C04040E1F700C0000096839FE724E83EE14A
S11300D0915020403040E1F700C0000086834FE794
S11300E084E89EE1415080409040E1F700C0000068
S11300F0089587E0809321048093000A83E7809326
S1130100010A80E593EC8093360A9093370A1092A3
S1130110380A1092390A10923A0A10923B0A109245
S11301203C0A10923D0A0895E0E0F4E080EE8283F8
S113013088E08093150480931604809317042FE3BA
S11301408DE093E0215080409040E1F700C0000032
S113015080E1809301028085882314F48CE001C03F
S113016088E09091080496FD8E5F9091080495FDB7
S11301708F5F880F80931C0881E08093190808958D
S113018088ED84BF109261000E944A0010922204FC
S11301900E9479000E94940008959DEF980F923078
S11301A010F00E942F03662359F021E030E0A901EA
S11301B002C0440F551F8A95E2F740930504089541
S11301C021E030E0A90102C0440F551F8A95E2F7EF
S11301D0409306040895613593EC790710F00E946A
S11301E02F03813049F018F0823059F0089560935C
S11301F0380A7093390A089560933A0A70933B0A57
S1130200089560933C0A70933D0A0895EBE1F8E089
S1130210808185FFFDCF80911D0808959EEF980F82
S1130220923010F00E942F0380931A0808950895C5
S1130230613079F028F06230A9F06330E1F008957C
S113024060E084E00E94CD0060E083E00E94CD0085
S1130250089560E084E00E94CD0061E083E00E94A4
S1130260CD00089561E084E00E94CD0061E083E068
S11302700E94CD00089561E084E00E94CD0060E01A
S113028083E00E94CD000895CF93DF93EC010E9498
S1130290D00160E0CE0101960E94D10161E0CE015F
S11302A002960E94D10162E0CE0103960E94D10120
S11302B0DF91CF9108950F931F93CF93DF93EC01B8
S11302C0042F122F01960E94F101602FCE01029695
S11302D00E94F101612FCE0103960E94F101DF918A
S11302E0CF911F910F910895CF93DF93CDB7DEB7D0
S11302F02897CDBFDEBF0E94C000CE0101960E94A8
S11303001701CE0102960E9444011E821F821886A4
S113031063E0CE0101960E9418010BE118E00F2E54
S1130320FDE1AF2EF8E0BF2EF02D63E0CE01019683
S11303300E941801A895F801808186FF29C062E017
S1130340CE0101960E941801F501808183E00E948C
S11303500E016E01F6E0CF0ED11CF12CF801808164
S1130360806C80830E940601F60181936F01F8017D
S11303708081806C8083F1E0FF1518F083E00E9497
S11303800E01F39483E0F812E9CF82E00E940E019B
S113039028854F816E81CE0102960E945B01C5CFF4
S11303A00895FC0160830895CF93DF93EC01CB01A2
S11303B08C5B92408931964010F00E942F0380E0BC
S11303C090E00E94A1022DEC3CEC4CEC5EE30E9418
S11303D000020E94720288810E94EB00DF91CF919B
S11303E008952DE2260F2B3510F00E942F0321E1F2
S11303F06202B001112468537A4F0E94D401089517
S11304000E9414020C94F5020E94EE0258F00E941D
S1130410E70240F029F45F3F29F00C94DE02511109
S11304200C9429030C94E4020E94060368F39923B4
S1130430B1F3552391F3951B550BBB27AA276217DC
S11304407307840738F09F5F5F4F220F331F441FE9
S1130450AA1FA9F335D00E2E3AF0E0E832D091501D
S11304605040E695001CCAF72BD0FE2F29D0660F0A
S1130470771F881FBB1F261737074807AB07B0E84D
S113048009F0BB0B802DBF01FF2793585F4F3AF053
S11304909E3F510578F00C94DE020C9429035F3FD3
S11304A0E4F3983ED4F3869577956795B795F795D9
S11304B09F5FC9F7880F911D9695879597F90895C1
S11304C0E1E0660F771F881FBB1F6217730784075D
S11304D0BA0720F0621B730B840BBA0BEE1F88F76C
S11304E0E09508950E940E0388F09F5798F0B92F65
S11304F09927B751B0F0E1F0660F771F881F991F55
S11305001AF0BA95C9F714C0B13091F00E942803CB
S1130510B1E008950C942803672F782F8827B85FDB
S113052039F0B93FCCF3869577956795B395D9F7AC
S11305303EF490958095709561957F4F8F4F9F4FB6
S11305400895E89409C097FB3EF4909580957095C2
S113055061957F4F8F4F9F4F9923A9F0F92F96E90B
S1130560BB279395F695879577956795B795F11180
S1130570F8CFFAF4BB0F11F460FF1BC06F5F7F4F1D
S11305808F4F9F4F16C0882311F096E911C077232F
S113059021F09EE8872F762F05C0662371F096E838
S11305A0862F70E060E02AF09A95660F771F881F07
S11305B0DAF7880F9695879597F9089597F99F67C5
S11305C080E870E060E008959FEF80EC08950024D7
S11305D00A941616170618060906089500240A94A4
S11305E012161306140605060895092E0394000C2A
S11305F011F4882352F0BB0F40F4BF2B11F460FFB9
S113060004C06F5F7F4F8F4F9F4F089557FD9058E1
S1130610440F551F59F05F3F71F04795880F97FBC2
S1130620991F61F09F3F79F087950895121613067C
S11306301406551FF2CF4695F1DF08C016161706AB
S11306401806991FF1CF86957105610508940895E0
S1130650E894BB2766277727CB0197F9089581E0B3
S10F066090E0F8940C943403F894FFCF5D
S9030000FC
